:060000000A128A11142906
:10000800F000030EF1000B1810200B191820710EC8
:100018008300F00E700E090003138312061C850A74
:10002800861C85030B10080003138312EC30810033
:100038000B118701201C2428A01C2928201D2F28EB
:10004800201421088800071408002010A014220892
:10005800880087140800A0102015230888000715B9
:04006800A0010800EB
:100200008A010A140F3982073F3406345B344F34B5
:1002100066346D347D3407347F346F3477347C3406
:1002200039345E34793471344621292130213D211D
:100230005C2103138312050862211F211B29290851
:100240000021A3002A080021A2002B080021A10000
:100250000800031383160F178F160F120F140800D0
:1002600003138316811281110115811401140313E4
:100270008312EC3081000B1108000313831616144F
:1002800096140313831206080B1008000317831635
:1002900088018901031383168501870188010614EB
:1002A0008614061181131514951403138312850106
:1002B00086018701880108008B178B150B108B16A0
:1002C0000B110800A500A601A60A6430A5020318B8
:1002D00064292603A70064302507A8002708AB007F
:1002E0002808A500A601A60A0A30A502031873294A
:1002F0002603A7000A302507A8002708AA00280817
:04030000A900080048
:04400E00D420FF3F7C
:00000001FF
